:020000040000fa
:080000000002040000000000f2
:020000040000fa
:040008001e030000d3
:020000040000fa
:04000c006403000089
:020000040000fa
:04001000ca0300001f
:020000040000fa
:0400140040030000a5
:020000040000fa
:04001800860300005b
:020000040000fa
:04001c00a803000035
:020000040000fa
:04002000ec030000ed
:020000040000fa
:040024005a05000079
:020000040000fa
:040028005a05000075
:020000040000fa
:04002c005a05000071
:020000040000fa
:040030005a0500006d
:020000040000fa
:040034001a040000aa
:020000040000fa
:040038005a05000065
:020000040000fa
:04003c005a05000061
:020000040000fa
:040040005a0500005d
:020000040000fa
:040044005a05000059
:020000040000fa
:04004800300500007f
:020000040000fa
:04004c005a05000051
:020000040000fa
:040050005a0500004d
:020000040000fa
:040054004c04000058
:020000040000fa
:040058005a05000045
:020000040000fa
:04005c005604000046
:020000040000fa
:040060005a0500003d
:020000040000fa
:040064005a05000039
:020000040000fa
:040068005a05000035
:020000040000fa
:04006c005a05000031
:020000040000fa
:040070005a0500002d
:020000040000fa
:040074009a040000ea
:020000040000fa
:040078005a05000025
:020000040000fa
:04007c005a05000021
:020000040000fa
:040080005a0500001d
:020000040000fa
:040084005a05000019
:020000040000fa
:040088005a05000015
:020000040000fa
:04008c005a05000011
:020000040000fa
:040090005a0500000d
:020000040000fa
:040094005a05000009
:020000040000fa
:040098005a05000005
:020000040000fa
:04009c005a05000001
:020000040000fa
:0400a0005a050000fd
:020000040000fa
:0400a4005a050000f9
:020000040000fa
:0400a8005a050000f5
:020000040000fa
:0400ac005a050000f1
:020000040000fa
:0400b0005a050000ed
:020000040000fa
:0400b4005a050000e9
:020000040000fa
:0400b8005a050000e5
:020000040000fa
:0400bc005a050000e1
:020000040000fa
:0400c0005a050000dd
:020000040000fa
:0400c4005a050000d9
:020000040000fa
:0400c8005a050000d5
:020000040000fa
:0400cc005a050000d1
:020000040000fa
:0400d0005a050000cd
:020000040000fa
:0400d4005a050000c9
:020000040000fa
:0400d8005a050000c5
:020000040000fa
:0400dc005a050000c1
:020000040000fa
:0400e0005a050000bd
:020000040000fa
:0400e4005a050000b9
:020000040000fa
:0400e8005a050000b5
:020000040000fa
:0400ec005a050000b1
:020000040000fa
:0400f0005a050000ad
:020000040000fa
:0400f4005a050000a9
:020000040000fa
:0400f8005a050000a5
:020000040000fa
:0400fc005a050000a1
:020000040000fa
:040100005a0500009c
:020000040000fa
:040104005a05000098
:020000040000fa
:040108005a05000094
:020000040000fa
:04010c005a05000090
:020000040000fa
:040110005a0500008c
:020000040000fa
:040114005a05000088
:020000040000fa
:040118005a05000084
:020000040000fa
:04011c005a05000080
:020000040000fa
:040120005a0500007c
:020000040000fa
:040124005a05000078
:020000040000fa
:040128005a05000074
:020000040000fa
:04012c005a05000070
:020000040000fa
:040130005a0500006c
:020000040000fa
:040134005a05000068
:020000040000fa
:040138005a05000064
:020000040000fa
:04013c005a05000060
:020000040000fa
:040140005a0500005c
:020000040000fa
:040144005a05000058
:020000040000fa
:040148005a05000054
:020000040000fa
:04014c005a05000050
:020000040000fa
:040150005a0500004c
:020000040000fa
:040154005a05000048
:020000040000fa
:040158005a05000044
:020000040000fa
:04015c005a05000040
:020000040000fa
:040160005a0500003c
:020000040000fa
:040164005a05000038
:020000040000fa
:040168005a05000034
:020000040000fa
:04016c005a05000030
:020000040000fa
:040170005a0500002c
:020000040000fa
:040174005a05000028
:020000040000fa
:040178005a05000024
:020000040000fa
:04017c005a05000020
:020000040000fa
:040180005a0500001c
:020000040000fa
:040184005a05000018
:020000040000fa
:040188005a05000014
:020000040000fa
:04018c005a05000010
:020000040000fa
:040190005a0500000c
:020000040000fa
:040194005a05000008
:020000040000fa
:040198005a05000004
:020000040000fa
:04019c005a05000000
:020000040000fa
:0401a0005a050000fc
:020000040000fa
:0401a4005a050000f8
:020000040000fa
:0401a8005a050000f4
:020000040000fa
:0401ac005a050000f0
:020000040000fa
:0401b0005a050000ec
:020000040000fa
:0401b4005a050000e8
:020000040000fa
:0401b8005a050000e4
:020000040000fa
:0401bc005a050000e0
:020000040000fa
:0401c0005a050000dc
:020000040000fa
:0401c4005a050000d8
:020000040000fa
:0401c8005a050000d4
:020000040000fa
:0401cc005a050000d0
:020000040000fa
:0401d0005a050000cc
:020000040000fa
:0401d4005a050000c8
:020000040000fa
:0401d8005a050000c4
:020000040000fa
:0401dc005a050000c0
:020000040000fa
:0401e0005a050000bc
:020000040000fa
:0401e4005a050000b8
:020000040000fa
:0401e8005a050000b4
:020000040000fa
:0401ec005a050000b0
:020000040000fa
:0401f0005a050000ac
:020000040000fa
:0401f4005a050000a8
:020000040000fa
:0401f8005a050000a4
:020000040000fa
:0401fc005a050000a0
:020000040000fa
:040200005a0500009b
:020000040000fa
:040204005a05000097
:020000040000fa
:040208005a05000093
:020000040000fa
:04020c005a0500008f
:020000040000fa
:040210005a0500008b
:020000040000fa
:040214005a05000087
:020000040000fa
:040218005a05000083
:020000040000fa
:04021c005a0500007f
:020000040000fa
:040220005a0500007b
:020000040000fa
:040224005a05000077
:020000040000fa
:040228005a05000073
:020000040000fa
:04022c005a0500006f
:020000040000fa
:040230005a0500006b
:020000040000fa
:040234005a05000067
:020000040000fa
:040238005a05000063
:020000040000fa
:04023c005a0500005f
:020000040000fa
:040240005a0500005b
:020000040000fa
:040244005a05000057
:020000040000fa
:040248005a05000053
:020000040000fa
:04024c005a0500004f
:020000040000fa
:040250005a0500004b
:020000040000fa
:040254005a05000047
:020000040000fa
:040258005a05000043
:020000040000fa
:04025c005a0500003f
:020000040000fa
:040260005a0500003b
:020000040000fa
:040264005a05000037
:020000040000fa
:040268005a05000033
:020000040000fa
:04026c005a0500002f
:020000040000fa
:040270005a0500002b
:020000040000fa
:040274005a05000027
:020000040000fa
:040278005a05000023
:020000040000fa
:04027c005a0500001f
:020000040000fa
:040280005a0500001b
:020000040000fa
:100400000f2a22000eff27000e01880000000000c6
:10041000000020000000e000020032000001200087
:100420002002880014000700470207000000e000d7
:1004300003003a0000802e00010020000200370077
:100440000000200001002000810f70000100320038
:100450000f000700000020000000e0000200320052
:10046000000002000000000052f402000000000042
:100470000040da000000fe0000bb20000000e000a9
:1004800002003200002020009001880000000600d9
:10049000a1028800800478000000eb001f003700f4
:1004a000e284440054a0b4009905ba00e2844400f8
:1004b00054a0b4009906ba00e284440054a0b400e9
:1004c0000006eb00476fde00fd07b200ae018800ba
:1004d000636ce10003003a000ad801000000eb0061
:1004e0000e003700606ce10008003a00004deb00a0
:1004f0000a05e800020039003420ec000af0a000f0
:100500008b05e900f9ff3e00040037006168e10057
:10051000010032000086eb000b00070019c7ba008b
:100520000e04e0001905ba0003003a000a00e000da
:10053000dbff3a0000000600fe07b200ae028800b2
:100540008a047800f5ff37000cd0a300e20f4d00bd
:100550001c003b0089027800354dba000a05e8000e
:10056000020039003420ec000af0a0008b05e900fd
:100570000f003200254dba000a05e80002003900dc
:100580003420ec000af0a0008b05e90008003200de
:100590000c00e0000600320015cdba000a05e800a4
:1005a000020039003420ec000af0a0008b05e900bd
:1005b0008984e80054a0b4000b00e000e2ff3a0098
:1005c000000006009902ba00055d78008b05e9007d
:1005d000f7ff3200c82ade00055d78008b05e900d0
:1005e000f3ff32000c00e000f1ff320019ddba0029
:1005f000eeff3700a0d7040000000000740f0400d5
:1006000000000000e63c040000000000a4460400d6
:1006100000000000684804000000000022470400b9
:10062000000000007e47040000000000a446040013
:100630000000000014480400000000003600f8002c
:10064000809fbe00829fbe00849fbe00869fbe002a
:100650000000fa00c028a9000000eb00bf780700e6
:10066000000000000080fa004f03be004f02be00f1
:100670004f01be004f00be003600f90000400600ea
:100680003600f800809fbe00829fbe00849fbe009f
:10069000869fbe000000fa00b8780700c048a90095
:1006a00010002000ad780700000000000080fa0074
:1006b0004f03be004f02be004f01be004f00be0000
:1006c0003600f900004006003600f800809fbe00aa
:1006d000829fbe00849fbe00869fbe000000fa007d
:1006e000c068a900200020009c78070000000000de
:1006f0000080fa004f03be004f02be004f01be0053
:100700004f00be003600f900004006003600f80039
:10071000809fbe00829fbe00849fbe00869fbe0059
:100720000000fa00c088a900300020008b78070084
:10073000000000000080fa004f03be004f02be0020
:100740004f01be004f00be003600f9000040060019
:100750003600f800809fbe00829fbe00849fbe00ce
:10076000869fbe000000fa00c0a8a900400020003b
:100770007a780700000000000080fa004f03be00f6
:100780004f02be004f01be004f00be003600f90010
:10079000004006003600f800809fbe00829fbe0029
:1007a000849fbe00869fbe000000fa00c608a90014
:1007b0007000200069780700000000000080fa0047
:1007c0004f03be004f02be004f01be004f00be00ef
:1007d0003600f900004006003600f800809fbe0099
:1007e000829fbe00849fbe00869fbe000000fa006c
:1007f000204680004500de00614060000004e0000b
:1008000003003200c4a8a90090002000537807001c
:10081000204680004400de00614060000004e000eb
:1008200003003200c488a900a00020004b78070014
:10083000ffff37003600f800809fbe00829fbe0099
:10084000849fbe00869fbe000000fa00808e80005c
:100850000000e00002003200808e800000000100f5
:10086000a08e80000000e800a08e880010c0b300b9
:10087000d2f1b7000068a900000000000080fa0073
:100880004f03be004f02be004f01be004f00be002e
:100890003600f900004006000000fa000168a900d7
:1008a000000000000080fa00004006003600f8005a
:1008b000809fbe00829fbe00849fbe00869fbe00b8
:1008c0000000fa0001a8a900e36407000004e000aa
:1008d00011003200f3d0bf000004e000030032003a
:1008e00080752e00c06407000b003700f4d0bf00f5
:1008f0000004e000070032007d6507000004e0000e
:1009000003003200b0752e00b76407000200370004
:100910009f6307009e6307000080fa004f03be003c
:100920004f02be004f01be004f00be003600f9006e
:10093000004006003600f800809fbe00829fbe0087
:10094000849fbe00869fbe000000fa000268a900d6
:1009500026d1bf000004e000120032000a00370078
:10096000846907009b690700800078005088800038
:10097000808f500004003900856907008000eb007b
:10098000006c2e0056630700107180004200de00ec
:10099000614060000004e000f1ff32007c69070064
:1009a00090690700ac6407000004e00024003200f6
:1009b00027d1bf000004e000140032000b00370014
:1009c0006c690700836907008000780060888000f8
:1009d000808f5000050039006d690700006c2e0003
:1009e00081640700e0c3b300c6680700107180008f
:1009f0004200de0061406000e14f5000f0ff320035
:100a000063690700776907000d0037009070800068
:100a10004600de0061406000e14f500007003a00f0
:100a200024d1bf000004e00004003200b06b2e00af
:100a30006d64070018cea900010037005463070059
:100a4000000000000080fa004f03be004f02be000d
:100a50004f01be004f00be003600f9000040060006
:100a6000809fbe003200f8003400f8001000200023
:100a7000a00188000020200000d0fe000000fa0045
:100a80000108a900208e8000318e800061004000a6
:100a9000e0804800208e8800318e88000000000031
:100aa0000080fa003400f9003200f9004f00be0067
:100ab000004006000040da000000fe00f03fb100f8
:100ac0000180b10006003500ee03090000000000bf
:100ad000403fb1000180b100fbff3d001000b000bd
:100ae000203fb00002003500008009000000000037
:100af000000006000000e00034003a00e31481002a
:100b0000e18f510007003200e28f51001c003200db
:100b10003002e2000b0035003822ef0031e2a8007d
:100b200008003700002220000000e00001003a0029
:100b30000040da002002e200020035002822ef0027
:100b400021e2a800020078000000e0001800320056
:100b5000040a2000e18f51000e0032003202ab0087
:100b600003003a000402e9000400e000fbff3a0041
:100b70003202ab000e003200b411800010003700ca
:100b8000002320000000e000e1ff3a000040da000e
:100b9000dfff37002202ab0003003a000402e90045
:100ba0000400e000fbff3a002202ab0003003a0021
:100bb000000151000200780000000600341180009e
:100bc000845878000000e900dfff37000040da00b9
:100bd000f8ff37000040da0000000600e20f500086
:100be00036003e00e4148100e10f52000a0032009a
:100bf000e20f52001c0032003002e2000200350019
:100c00003822ef0031e2a8003342ab000d003a0079
:100c10003342a8000b003700002220000000e00053
:100c200001003a000040da002002e2000200350034
:100c30002822ef0021e2a8002342ab0001003a0085
:100c40002342a80002804000808f50000b003a0031
:100c5000e10f520016003a002302ab00feff320003
:100c60000200780000000600002320000000e000e1
:100c7000e1ff3a000040da00dfff3700b1417800c1
:100c8000e10f520005003a002322ab00feff3a00bc
:100c90008301fb0023118800ebff37003322ab00f8
:100ca000feff3a008301fb00a3118800e6ff370036
:100cb0003302ab00feff3200e9ff37000040da00ec
:100cc000e7ff3700889fbe0000047800f014810021
:100cd0000000e00008003200f91481000800e00084
:100ce0000a003200088044000b0007000000e0000a
:100cf00006003d00040037000000eb00060007007e
:100d00000000e000f4ff3d008084eb000900780063
:100d10004f04be00000006000000e00004003a009e
:100d200000002000f01489008000eb000400370070
:100d30008080eb0002002000820f5000f9ff360097
:100d400001007800000006000000050014002000eb
:100d50009c033700f4ff2f009a0337000001be0008
:100d60001e0007000470a70003f0a10003f8a30011
:100d700013003a006509b100100032000900350087
:100d80006928e1000200350001002800000005008c
:100d900000004000818048008502e900fcff3a0025
:100da00000000600f88f4200050035008100d100e8
:100db0000080d3008502e800fcff3a000000060036
:100dc0008000eb00000005004f89de008201780002
:100dd000970337006011b800a5033700c70ade008b
:100de000f107b200f50fb20008003200e1cf420077
:100df000020032000170a00024000500810f700085
:100e0000010032000408050044000500810f700055
:100e100002003a00140005008502e90000004000cd
:100e200081c04800fcff3b000170a00024000500c9
:100e30006022b800060220000000d0008180d200ad
:100e40000482d2008582d2000000a000020252007b
:100e500083825a00030031000202420083824a006a
:100e60000000a1000603e900f3ff3a0000000600bd
:100e700007f82700078361000638e10004003a0004
:100e8000f7072000878361008703710001003a00a3
:100e900003f0a200889fbe008a9fbe008c9fbe0008
:100ea000470ade000480a100c71ade000580a10009
:100eb000070028000785600087856100f70f200084
:100ec0000720e1009e0032000728e1009c0032006c
:100ed000010678000400e000b4003200f7072000ab
:100ee000878060000170a0000500e000c0003200b3
:100ef000f7072000878161000370a00005065200fb
:100f00000f003a000b50e1000b0032000308e10033
:100f100002003a000200e1007e00320002045000ac
:100f200083845800040031000001fd008101fd00b0
:100f30008402fd008a05fd006044b80021003700ee
:100f40000520e10005003d000001fd008101fd00dc
:100f50008402fd008a05fd00050652007a60e1006a
:100f6000050035000170a1004722dd00848070007b
:100f70008a807000630037006044b800ef026600aa
:100f800007ff2f00070666000500e000060034009a
:100f9000f08312008714dd000511de00071bdd0061
:100fa000060171008519de007060e1000500350062
:100fb0000904780082047800030178008001eb00c6
:100fc000700656000b50e10003003a00020040009a
:100fd000838048000400370060041400e0841c0093
:100fe00002005800838058000188a30006003200e8
:100ff0008100d1000080d3008984d3000884d3000d
:101000000402e800270037000178a30025003a0019
:101010000100e000030032008186cf00698656009f
:101020000a0037008c0020000000e00004003a00b5
:1010300009007800880478000004eb007002520078
:101040008086cf000d0646000c06e9007060e100c6
:1010500006003500800078000900780088047800d8
:101060000004eb0070065600700252000c00e00015
:101070000c0034008c08dd00f00316000703de00ce
:10108000868070000c00dd00074bde00060070005b
:101090008c4cdd000743de00868474000c44dd00c8
:1010a0000c0252006120e100200035006101600067
:1010b0000700280087816400f7ff2700878364000a
:1010c000070374000300e00006003200820373008f
:1010d000040032000000e800e08048000188a3001e
:1010e0000e003a00f70f20000720e1004a003d0003
:1010f0000170a1004722dd00810072008a8070002b
:101100000000be004f06be004f05be004f04be00eb
:10111000000006006000b800faff37008100d1002f
:101120000080d3000402e800eeff370004017800dd
:1011300089017400a10107008a807000f1ff370067
:10114000f7010700070278000001fd008101fd00a2
:10115000f301070087027800850372000778a30077
:10116000040032000001fd008101fd0006020700bd
:10117000e4ff3700850362000768a300080032001f
:101180000b50e10003003200f0ff2f00f1ff2700b9
:10119000dcff37000001fd008101fd00d9ff3700b1
:1011a0000468a300d7ff3200faff3700f8ff2700da
:1011b000888360000b003a000000e00009003a005c
:1011c0008303640082837300020032000200be00c9
:1011d000ccff37000b50e100ceff3a000200be000a
:1011e000c8ff370014002000810064003eff370074
:1011f000f8ff27008883610004003a000200e00045
:1012000002003a008c007800beff37001500200075
:101210008301640039ff370001f827000000200037
:1012200081007500b7ff3700889fbe008a9fbe000f
:101230008c9fbe001b0020000202be0005866800d5
:1012400006002800060666004709de00f20fb2001d
:10125000820032000243e80080003200c729de002d
:10126000f30fb2007d0032000343e8007b00320040
:10127000f107b2000170a000f507b2000570a000f0
:10128000c708dd004903de00868070004700dd00ee
:10129000c72add004923de00868272004722dd0076
:1012a00003055100040350008583580003003100fa
:1012b00000004000818048000a05e9008c1f78008a
:1012c0008a9fbe000400500085805800040242003e
:1012d00085824a0000004000818048000005eb0044
:1012e0000004be006033b8000406be000d48e100f3
:1012f00056003100110009004dccd8000c01b80097
:101300000d02b8008481410060824a00828353004c
:1013100003045c0084845c0060055d000a00e0005a
:1013200025003a00800578000d40e10049003100b9
:101330008800780007007800110009004d88d80067
:101340000c01b8000d02b8008481410060824a009f
:101350006003110083835b0004045c00e0845c0094
:101360000900e00021003a004f01be000300e00048
:101370002b003200e3016000070673008c817100ce
:1013800001003200640070004200de004e5edd00ad
:101390000c007000c258de0001e0a00083010700cd
:1013a000cf017800818071004f06be004f05be005e
:1013b0004f04be00000006008c8343000d044c0067
:1013c000e0844c0060054d000000e9000a00e000e8
:1013d000d4ff32008c8343000d044c00e0844c00a9
:1013e00060054d000000e900ceff37000c0343000c
:1013f0008d834b0060044c00e0844c000000e90049
:101400000900e000d8ff32000c0343008d834b003d
:1014100060044c00e0844c000000e900d2ff37007b
:101420004200de004e5edd000c007000c258de009f
:1014300001e0a000cf0178000300e000daff3200f5
:1014400060001000e0801800d7ff3700f0ff2f0089
:10145000aaff3700f0ff2f00b9ff37000404be00d9
:101460002f010700870678000004fd008104fd00bd
:101470002b010700078366000678a30003003200f3
:101480000960a7000800be002c0037000d78a300fb
:10149000020032000800be00280037000778a300d1
:1014a00026003a0001f0a10009f0a1000668a3009f
:1014b00003003200f1ff2700f0ff2f00baff3700d2
:1014c0000d68a300030032000800be008c8070008d
:1014d000b5ff37000768a30007003a000648a300dd
:1014e00003003200f1ff2700f0ff2f00aeff3700ae
:1014f0000d48a300030032006000b8008c8070002b
:10150000a9ff37000748a3000400320001f82700b4
:10151000000020008c807000a3ff370076010700d8
:101520000004fd008104fd0002057800720107003f
:101530000802be008a01780059ff37000160a00050
:1015400012022000e28e880097ff37000100e000c1
:10155000120032000500e00010003200889fbe003b
:101560008a9fbe008c9fbe000006eb0001f8a3001e
:101570000300320060001000e08018000cf0a000b2
:1015800005f8a3000300320060021200e0821a0096
:101590000cf0a2008005eb0041ff37006000b800ae
:1015a00002000500038368000700280007036300aa
:1015b000470ade000480a100c71ade000580a100f2
:1015c000f70f20000720e100420032000728e10069
:1015d00040003200889fbe008a9fbe008c1f7800aa
:1015e000f107b200f307b2000400e000640032002b
:1015f0000170a0000500e000680032000370a00048
:1016000085054200eb07b1000204b8000302b800f0
:101610008484440060854a00020ab800848444003f
:101620000a854a00030ab800040545000400330097
:101630000804d0008984d2000a85d2008b05e90015
:101640006158e1003d0035000210200009016100f1
:101650000308200089816100f70720008783640068
:1016600008867300c84cde00c853dd008784740010
:101670004855de000300e0000600320082037600d9
:10168000040032008904e80060054d000a88a300c8
:101690000c003a00f70f20000758e10044003d001d
:1016a0000a70a100c75ddd000a8575008a0073001d
:1016b000090078004f0678004f05be004f04be00b9
:1016c000000006000a05d1008984d3008b05e800dc
:1016d000f0ff3700881f78000604780090000700ac
:1016e000070278000001fd008101fd008c00070069
:1016f00087027800850372000778a3000500320096
:101700000001fd008101fd009f0007004f047800eb
:1017100000000600850372000748a30003003200a2
:10172000f0ff2f00f1ff2700f8ff37000000200036
:1017300001f8270088807000f4ff370088017800e6
:101740004848dd00808171004848de00c850dd0057
:1017500001007000c850de00060478000b0178001c
:101760001600070088807000d2ff37000500e000f7
:1017700005003200170020003a0007009dff3700e7
:1017800081037000f9ff3a00860078004f06780068
:101790004f05be004f04be0000000500830371002a
:1017a000f9ff3200270020002e00070094ff3700c9
:1017b00001f8270086807000f4ff37000100e00088
:1017c00026003200610111007810e10023003c0086
:1017d0006022b8007010e10004003500800278003b
:1017e000010078008000eb00700151000200e00071
:1017f0000900340070031100062add00822ade0091
:101800008603dd00878272000200de00860bdd00a9
:10181000070070008208de0084817100f4ff270059
:1018200004826200848171000400280084826200c6
:101830006102600005f0a60000000600048271004d
:10184000070032000000e800e080480000000600c9
:101850000002be006000b800efff37006000b80073
:1018600000000600889fbe000004eb006138e10024
:1018700016003a000100e00008003a00c800de004f
:101880004800dd00880020000100e00003003a006d
:10189000c800de004800dd00680444008184cf00f9
:1018a000e9845400060034008908dd00f083140048
:1018b0008703de00878070000900dd000904440012
:1018c000610214004f04be00000006000300e000a7
:1018d00008003a00c811de004811dd008800200031
:1018e0000300e00003003a00c811de004811dd00eb
:1018f000680444008384cf00e98454000600340067
:101900008919dd00f08314008713de0087817100e0
:101910000911dd0009044400e1021400e9ff370069
:101920002700200001f0a70017002000470bde0071
:10193000f60fb200040032000643e8000a0032004d
:101940004702b3000000060001037800f607b2006a
:101950000603700002003a000703b300000006000f
:101960008702b3000000060001037800f607b2000a
:1019700006037000020032000770a000000006009d
:101980000760a000000006000478a30004003200f5
:101990000578a300030032000168a30001003a00ab
:1019a0000200be000160a00000000600810170007e
:1019b000270032008002eb0001f8a3000300320090
:1019c00060001000e080180015002000f4072000df
:1019d0000202420020003400f70320008703600069
:1019e00006042000000363000208200000016100db
:1019f0004700de00c909dd0000807100c708de0075
:101a00000600e00008003200870371000600320083
:101a10001000b0000180b0000188a3000200320075
:101a2000c108de000402e800f107b200f30f200055
:101a30000320e10003003d004722dd008100720029
:101a40002900370001f827000000eb0026003700ce
:101a50006000b80000000600680212007f20e1006c
:101a6000020034006000b8001f0037006011b800a9
:101a70007020e1000400350080017800010078004a
:101a80008000eb00700252000400e0000900340006
:101a9000f00312000719dd008419de000703dd00e2
:101aa000868171000400de00070bdd000600700077
:101ab0008408de00f7ff270083836300870371003b
:101ac0000600280003036300070032000700e0005f
:101ad00003003a00610160000281730002003200dd
:101ae0001000b0000180b0000500a6000000060054
:101af00001f0a000000006004f0ade004709de00ea
:101b0000f107b200f20fb2000b003200f207b10091
:101b10000170a000c708dd00c901de0083807000ed
:101b20004700dd000400a600000006006000100071
:101b3000e080180000000600810f700001003a00ec
:101b4000000006008182cf000500e00010003e008a
:101b50008082cf00ee8242007028e100040039004c
:101b600007003e00800078000000eb000e00370008
:101b7000708312008600de000500dd000a003700d9
:101b8000708352008600dd000000eb000600370085
:101b9000e28252008508dd00708312000603de0039
:101ba000868070000500dd007507b0000501ea00c1
:101bb0000400a6000000060060001000e08018008d
:101bc00000000600889fbe008a9fbe00841f780028
:101bd0007c0007004f00780011003300f0ff2f0059
:101be000838f6c0006003b00040565000a00a70017
:101bf0000800370009f0a600100020000800370098
:101c0000820f5400838f5c00030039001000200015
:101c100001003e000000200009f0a7000000ea00db
:101c20004f05be004f04be000000e00000000600ab
:101c3000881f7800030478000300e00007003d00df
:101c400060001000e080180060011900e0811900b8
:101c500002003b0001f02d000300370004000700e4
:101c600008f0a70001f0a0004f0478000000060073
:101c7000889fbe008a9fbe0000827000040271002f
:101c800004827100260032000004be000200be0083
:101c90006011b8006b092000950220000182cf007e
:101ca0000a0039000541b1000082cf000700390069
:101cb0000541b1000982cf00040039000541b1009f
:101cc0000882cf00010039000541b10005425200f1
:101cd000120032000a003b00828171006101640041
:101ce0008100d1000080d3008984d3000884d30010
:101cf0008b05e8000442e800f7ff3a0007003700d0
:101d00000804440089844c00000048008180480099
:101d10008b05e9000442e900f9ff3a0003000700df
:101d20004f05be004f04be000000060081002000e9
:101d3000618055000b003d000b00200061fe2f006c
:101d40000100e1001d003400828171006101640026
:101d50008904d1000884d3000000e800faff3a00ab
:101d60007100200061006400030070000200600048
:101d70000900320061044400e0844c000988a50099
:101d8000050032008b05e8006808e10002003a0017
:101d90008904d1000884d300f20f20000258e1002a
:101da00005003d00c75ddd00f907b20089807500c0
:101db00008007800000006000bf827008b00780070
:101dc000000005000004be0004fc07000003be0084
:101dd0000405be000200be0000fc0700844f750031
:101de000000006000000fa00e88157004fb9970094
:101df0004a0407000080fa0000000600ca0207003b
:101e0000210307005b03070083030700ad030700fe
:101e1000f51a07007a1a3700a61481008000eb003b
:101e20000600e0000b003200060178008001eb00a4
:101e30008002eb0092037800808f53001202900022
:101e40000a003a000300e000060032009401980006
:101e50008280e8000100780000000600040178009c
:101e6000f4ff3700a4148900f9ff3700808f530076
:101e7000040036000100e00016003200918f53008c
:101e800014003900820178000400e000f3ff3a00fa
:101e90000100e000efff32009101900001017800a5
:101ea00032021000e40f520005003600800878006e
:101eb000000041000488e9001300980080017800c8
:101ec000810f530006003a00a314890082007800b5
:101ed000e0ff37008302780082007800e9ff3700d6
:101ee00093029800f9ff37000000e0000d00320077
:101ef0000081e900a11481000100e0000f00320020
:101f000070ba97009181e80084024000858f5000ec
:101f100005003a008182e8001508780003094200b4
:101f2000a21489000000060083824000850f510042
:101f300002003a0083084200000006000108780011
:101f4000f7ff37000200fa00889fbe008a9fbe009c
:101f50000000e00001003a00100020000000e8004e
:101f6000000478000800a1000800e00007003a0023
:101f7000c0002000d01489000000eb004f05be0017
:101f80004f04be000080fa000000060040f7200069
:101f90000000e00026003200e10f5400220036006d
:101fa000e30f4400f2ff3e00080078009aff0700ac
:101fb0002a0020000000e000f0ff3a008a054400fb
:101fc000492822003014810019005000880f500069
:101fd0000c003100bbbf9f006a805700f00507006e
:101fe0000000e000e5ff320031148100808f5000d6
:101ff0000100320020148900612822003fb99700b7
:102000008208400021148100010078000a00e000ed
:1020100001003200081878008b8c40009904780089
:1020200029148900d5ff370028002000deff370083
:102030000005eb00e1ff37008001e900028140006c
:10204000828f500001003a0000000600b16978005c
:10205000fbff3700800078000108a3000f003a0062
:1020600001027800b4017800f2ef2f000301410073
:102070008381ea0003016100030828000301610075
:102080000200e0000c003200010178003204e000a0
:102090000500320082007800fbff37000101780064
:1020a0003204e00002003a00008050000000060008
:1020b00082007800e8ff370084007800e8ff3700ee
:1020c0008001eb000200e0000f0032008100e90017
:1020d00002014000b0417800514278000304e00062
:1020e000060032000404e00004003200820f5000b9
:1020f0000200320084cf5100f6ff32008381fb00e2
:102100000482fb0084815100030078000000060077
:102110002802fa00889fbe008a9fbe008c9fbe00e6
:10212000800678000106780000202000800047002b
:102130000f0009008018eb008004eb000900460046
:10214000904078000104e0008500320009804600dc
:102150001004e00007003a000005eb000a007800d8
:102160004f06be004f05be004f04be000080fa00bf
:10217000000006000181fb004410de00000040006a
:102180000020b000ef806000130020008118dd0007
:10219000ee01780081807100013778008904e80041
:1021a0000201410009377900e4ff3700840246004c
:1021b00080824200154378008102460095427800f3
:1021c000854f53005d003a00830f500002003a0033
:1021d00010002000020037000000e80082007800b4
:1021e0000101780080004100898f5000efff390025
:1021f00018002000080078000001eb008085eb004b
:1022000080004100898f50005a0039008b00e8009f
:102210000400e800808f500002003e008405780032
:10222000030478008b01e800880046000301780071
:102230000c00780033179a00e5100700be119200d9
:102240000000e000630032000904e9000b045400c0
:102250008b0f5400010031000b0478000804e800e3
:102260000002eb000d0578008002eb000a805600aa
:10227000890f50001400310009037800f603b30001
:10228000060178008000eb000d00780033179a00fb
:1022900014179a0005179a0026179a009d10070038
:1022a000be1192001e1292008e1292002e13920006
:1022b0000000e000490032008a005000898f500081
:1022c000a5ff3900800678000903450076f89700dd
:1022d0008080fb004409de00020141000220b000c2
:1022e0006f006000170020000038dd006e017900eb
:1022f000020060000000e0003a00320081804000ef
:1023000081004700118054000000e00037003200d7
:102310000400e000050032000500e0000300320088
:10232000800f54000100360008805400000545006d
:102330000000eb0080027800ccff3700854f53008f
:102340000200360084815000a1ff37008200e800bf
:10235000020278001300200003007800a0ff37007d
:1023600013002000030078000001eb000082eb0066
:102370009cff37008b0246008082420015437800a4
:102380008102460095427800854f530008003a00cc
:10239000880f500002003a001000200002003700b1
:1023a0000000e800820078000101780094ff370007
:1023b000854f5300020031000b845000f6ff3700b8
:1023c0008200e800820578001800200008007800ec
:1023d000f5ff370008825400a2ff370086864600ca
:1023e000b9ff370006057800d2ff37008300780078
:1023f000858f510001003100850078000101460001
:10240000124178000204e000080032000103450098
:10241000964f5100030032008b80500001054500ab
:10242000c4ff37008100e800f4ff370003007800a4
:10243000850f500049ff36000000e900000146000a
:102440008000450012417800914f5100f8ff3200a2
:102450000805450004007800b6ff3700889fbe00dd
:102460008a9fbe008c9fbe000104780091407800d6
:102470000104e000940032008100fb009c19070079
:102480000000e00090003200184190000204e000db
:102490008d003200904090000104e0008e00320078
:1024a000284590000a04e00017003a00b880fb00bd
:1024b0000281fb004811dd0002817000c810dd00c0
:1024c0004811de00028170009081fb00d080fb008b
:1024d000c808dd0081807100c809dd00c808de0081
:1024e000838070001004e0007b003200828f500077
:1024f00002003a000000e90073003700c808dd0060
:10250000d081fb00f6ff3700204390000604e00076
:1025100071003200384690000c04e0002d003a00b3
:102520001882fb008002eb00c822dd0004002000be
:102530000281fb008001eb00c011dd0002002000e1
:1025400002017200838172004855dd008005eb00b6
:102550000a0171008b8171001084fb008004eb0084
:10256000c844dd00080020000182fb008002eb006f
:10257000c022dd000400200004047400858474007f
:102580004833dd008003eb0006037400878374008a
:102590000080e8001004e0004f003200860f510078
:1025a000878f590002003a000080e900460037009a
:1025b0005082fb008002eb000602720087827200ec
:1025c000482bdd00c823de00870373004823dd00ad
:1025d000f0ff3700304290000404e0003e0032007b
:1025e000c84190000304e00035003a001884fb0065
:1025f0008004eb00c844dd00080020000c86fb00ce
:102600008006eb000c0674008d8674000281fb00ce
:102610008001eb00c011dd00020020000201760005
:10262000838176004855dd008005eb000a017100ca
:102630008b8171001084fb008004eb00c844dd0036
:10264000080020000482fb008002eb0004027400fa
:10265000858274000184fb008004eb00c044dd002f
:102660000800200008027200898272004833dd00f1
:102670008003eb0006027200878272006300400054
:102680001004e00014003200840f5100858f5900bf
:1026900002003a00630050000b003700482bdd00b9
:1026a000c823de00870373004823dd005082fb004f
:1026b0008002eb000602720087827200f0ff370092
:1026c0008800780092fe07004f06be004f05be004e
:1026d0004f04be00000006000000eb00faff3700c8
:1026e0004400fa00889fbe008a9fbe000004be001e
:1026f0000205780040fb2f000f0040001d0009007c
:102700000018eb00c003b100c89f9f0098af9f0066
:102710000080eb00a0af9f006022b8006033b800db
:1027200040fb2f000f004000bf0f070012002000e9
:102730008a00780040fb2f000f0040007809070056
:102740000900e000110032001faa9700cf9a9700fd
:10275000050552002fb29700bfb297004fb3970004
:10276000dfb39700cfd5de000402450085824d001f
:1027700006834d0087834d0084bf9f0095bf9f0057
:10278000a6bf9f00b7bf9f00840c44004f05be004a
:102790004f04be000080fa00000006000001eb00bc
:1027a000cfff0700741c370012002000ccff070089
:1027b000711c370022002000c9ff3700889fbe002f
:1027c0000004be000000e00003003a00b8148100dd
:1027d0000800e000080032000800be007810070082
:1027e000000444001804e00006003a000000eb007a
:1027f000b01489000004eb00080078004f04be000c
:10280000000006000800be003a1007000000440067
:10281000b01489001004e000040032006129220095
:102820008008e8000048eb00f3ff37000000eb00f1
:10283000b0148900f0ff37004400fa00889fbe0002
:102840008a1f78000004be000205780094bf9f0034
:10285000a5bf9f00b6bf9f00c7bf9f000000eb0051
:10286000c09f9f00a8af9f00d89f9f000080eb00f3
:10287000b0af9f006022b8006033b80060fb2f004b
:102880000f004000680f07001fba9700afba97000b
:102890003fbb9700cfbb9700120020008a00780052
:1028a00060fb2f000f004000ea0c07000900e00069
:1028b00006003200afaa97003fb39700068242009d
:1028c000df9a970005025200840c44004f057800ff
:1028d0004f04be000080fa0000000600f4ff2f0045
:1028e000f5ff2f00f6ff2f00f7ff2f00d2ff370074
:1028f0006022b8000600200007002800ceff370045
:10290000f4ff2f00f5ff2f006033b800caff370037
:1029100004002000050028006033b800c6ff37001f
:10292000f3ff3700edff3700e4874700889fbe00c4
:102930008a9fbe008c9fbe008e1f78000006780024
:10294000010478009106900021059000110778009d
:102950008ebf9f00b1059000120278009202900095
:1029600022039000b20390000400be000601be00e6
:102970004f98de00e10460000900e0003f003200f3
:1029800060021200e0821a0060031b00e0831b005b
:102990000d00e00008003500708057000e08780038
:1029a0001010a1000900e00003003a000fb89700e2
:1029b0000028a300260032008a00e900f0815700b9
:1029c000a2002000080078002f1007000900e00096
:1029d00003003a008fb897000128a30020003200be
:1029e0000000e900d1c2b3000900e00001003a0094
:1029f000b1c2b3000081450001497800e8004400fd
:102a00001101e90000015100808045000fba9700d4
:102a10008a0178000c007800730107009c00900088
:102a20000188a3000400320098009000810f50003c
:102a300001003d00010078004f0778004f06be00fe
:102a40004f05be004f04be004f00b100000006005d
:102a50000038a300d8ff3a008a007800d7ff37007b
:102a60000138a300e5ff32000000e9008080450046
:102a700002c2b30082487800e0ff37000d00e0009a
:102a8000c5ff3d00c9ff37000200fa00889fbe0065
:102a90008a9fbe000005780001047800a10590001f
:102aa00011007800b0bf9f00b10490009100900029
:102ab0000100e00003003500ea805700800878003c
:102ac0001110a100120278009202900022039000df
:102ad000b2039000ea815700820020008b0078004a
:102ae00008007800e80f07003fb99700f000610088
:102af0000100e000040032000000e9008080440092
:102b000002c3b300824878003fb99700e800610033
:102b10000100e000040032000000e9008080440071
:102b200002c2b30082487800e80044001101e900c5
:102b300000015100808044003fba97008b0178006b
:102b40000a007800280107009a0090000188a3007d
:102b50000400320098009000810f500001003d00f9
:102b6000010078004f05be004f04be000080fa004f
:102b700000000600ea874700889fbe008a9fbe00cb
:102b80008e1f780080047800020778000300780028
:102b900082e2260053c72600f2b79f0083bf9f0042
:102ba000c296220092bf9f000041eb00c2f79f0037
:102bb0001104900021059000910578000e00e000be
:102bc00001003a00728757000000e00002003a005e
:102bd0000e0078001ffd07000800e000030035002c
:102be000880f500001003600080078000b027800c2
:102bf0008a017800000178008e00780009007800d2
:102c0000f90007004f0778004f05be004f04be00d3
:102c1000af00b100000006000200fa00889fbe006d
:102c20008a9fbe000005780001047800a10590008d
:102c300011007800b0bf9f00b10490009100900097
:102c40000100e00003003500ea80570080087800aa
:102c50001110a1001202780092029000220390004d
:102c6000b2039000ea815700a20020008b00780098
:102c700008007800840f0700e80044001101e90013
:102c800000015100808044003fba97008b0178001a
:102c90000a007800d40007009a0090000188a30081
:102ca0000400320098009000810f500001003d00a8
:102cb000010078004f05be004f04be000080fa00fe
:102cc00000000600fa874700889fbe008a9fbe006a
:102cd0008c9fbe008e1f7800e0af9f00010578003a
:102ce00082bf9f00a3df9f0091009000aa06900082
:102cf0009a057800ba0490000100e0005b003500fe
:102d00000b10a1007081650082b79f000fb997007a
:102d1000120278009202900022039000b203900009
:102d20008fb197000300e00052003200e00f520024
:102d3000e08f5a00e00f5b00e08f5b004d00320037
:102d40000d86e90068816500f2af9f000200e00097
:102d5000010032000c06e900680045001004e9009b
:102d6000088044000048eb0001077800e10f5400a0
:102d70000d003400e00f5200e08f5a00e00f5b00be
:102d8000e08f5b003d003a000e00e0003b003c009d
:102d9000010056000e0040000000e0000200340078
:102da0000b18a30035003a000fb297000400e000b2
:102db000110032000fba97001400780094009000c0
:102dc00024019000b4019000e00f5000e08f580003
:102dd000e00f5900e08f59000700320008804400de
:102de000afd8970071f89f000884e900088044007c
:102df00001c3b300014878007fa997000200e000fa
:102e0000040032000804e9000880440001c2b30055
:102e100001487800680045001001e90008015100f0
:102e2000888044000b0278008d0178006fa897001d
:102e30006d000700efa99700930090000188a300a0
:102e4000040032009a009000810f500001003d0004
:102e5000010078004f0778004f06be004f05be0006
:102e60004f04be00af01b1000000060011002000b9
:102e7000a4ff37000d067800b2ff37000804e90010
:102e80006f006200e90f500022003c000003b00018
:102e9000afd997008301fb00f2fb2f000301410033
:102ea000f90f510010003e00800178000350a0008f
:102eb0001306b100f98f51000b003e00d1b79f00ff
:102ec00094b79f00a5b79f00b6b79f00c7b79f00f4
:102ed00036170700cfb397003fb39700afb2970004
:102ee0001fb29700dfb097008881440080497800c6
:102ef0000e07e900430020008703d1000683d300ba
:102f00008582d3000482d3008301e900faff3a00ee
:102f100096ff37007005b000ddff37001000fa00a3
:102f200001027800820078000081eb0082bf9f00e0
:102f30002210200092bf9f000000e00001003a0034
:102f40000f80e900a0bf9f00b4bf9f008002eb008c
:102f50000400e000010032008402e900c5bf9f00c8
:102f60000400e00005003d00b0042000d0148900fa
:102f70000080eb000080fa00000006000048eb0033
:102f8000e0bf9f00d0bf9f00030178007080570012
:102f9000230f0700f7ff3700889fbe00000478006a
:102fa000c0049000828f5400010036008204780033
:102fb0000900e0000a003200090178005800900082
:102fc0001dfc07006a004400108044005004980073
:102fd000c800900089845000490498000048eb0024
:102fe0004f04be0000000600f2874700889fbe0025
:102ff0008a9fbe008c9fbe008e1f7800000578005f
:10300000010678000204be00e10562000b00e0004a
:1030100002003a00828f51000e003e000801780045
:103020008c0078000a00780049170700888f540048
:1030300008003e0088047800090078004f077800f7
:103040004f06be004f05be004f04be002f01b10069
:1030500000000600888654000d0778000d017800f6
:10306000f08f56000100360002012000010220000e
:103070007e805700650d0700ef0f57000e003e00e1
:103080004469de0000ff2f008091b9000d0141006e
:10309000fe8057000a0078002d1707000b00e000a3
:1030a000e5ff3a00080178008c0078000a007800fb
:1030b00027170700e0ff370002012000fe805700bd
:1030c0000a0078002217070070075700eaff370050
:1030d0000000050000000500000005008040eb0036
:1030e0008181fb0083814100a2262200030141006f
:1030f000124278000404e00003003a00924090007d
:10310000014078000000060090017800934f5200c3
:1031100005003a00924090000308e800eacf500012
:10312000efff3600f6ff37008140e800fbff370075
:103130009400fa00889fbe008a9fbe008c9fbe004c
:103140000005780082047800118f98008005eb005c
:103150009e8890001104e0000a013200000820005f
:103160000001eb00023778008081eb0013879800a4
:10317000228798003e879800408798000004eb0063
:1031800008804000104078000004e0000300320096
:1031900052c2b300824f500028003a000800e000fd
:1031a00006003200080178000a007800e8160700df
:1031b0001e88900008004000108f98009e8e90009e
:1031c00050c2b3009d4f1000e8003a008d06e800a1
:1031d0001d8f98001e88900090407800b2c2b30006
:1031e00082cf50001e00320082cf500028003c00e9
:1031f00002c2b30082cf50001d00320032c2b300c1
:1032000082cf50001e003200a2c2b30082cf500015
:10321000290032003e160700208798009e88900003
:103220001100fb000003b100e90f500031003e0027
:103230008100e800118f9800f8ff37000804e800cb
:10324000cfff370002082000ee0079000100a00047
:10325000013779000000e800108f9800ddff37008b
:1032600002082000ee0079000120a000f8ff3700de
:1032700002082000ee0079000130a000f4ff3700c2
:1032800002082000ee0079000140a000f0ff3700a6
:10329000d2c2b30082cf5000eaff320002c3b300b3
:1032a00082cf5000d8ff3a0002082000ee007900db
:1032b0000110a000e6ff37000000e800108f980022
:1032c00019007800808ce90070b89700030820008e
:1032d00042082000003779000000e00005003d00b2
:1032e000ee807900e180680001b779000000ea0013
:1032f00000377900010820006e8078000008a300e4
:10330000020032000010a10000b778009e889000f3
:10331000e0c2b300914f10000f003a002c082000cb
:103320000000eb0000377e000100e800108f9800dd
:1033300091419000a2c2b30082cf510026003a0012
:103340008180e800118f980019007800808ce900d6
:1033500070b8970000377e00200920000e00400062
:103360005eff0700004678001e8890001000fb00fa
:103370000716070091062000810f500087003200d9
:10338000810f500036003c0031062000810f5000b4
:10339000e4003200810f500019003c00510220006f
:1033a000810f5000f100320011062000810f500003
:1033b0005c0032001d8f98000000eb000087980031
:1033c000208798000080eb00108798000002eb0037
:1033d0008001eb00ed003700cd15070000377e00bf
:1033e0009e8890001100fb000003b100e90f50001f
:1033f000d9ff3e008100e800118f9800f8ff3700e8
:1034000041062000810f5000640032007106200048
:10341000810f5000e7ff3c008c80fb000901780021
:10342000a00820000e004000e71507000000e000a3
:10343000b80032001e8890008000e800118f9800cc
:1034400090417800a20820000e01410001082000f0
:103450008e8040000a007800800e0700420037008e
:1034600001072000810f500083003200810f5000bf
:1034700018003c00e1062000810f50009f00320040
:10348000f1062000810f5000caff3a008c80fb003b
:10349000890178000001eb00a00820000e00400028
:1034a000d71407000000e0009a0032001e88900048
:1034b0000000e800108f9800a20820000e014100d3
:1034c000010820008e8040000a0078006efd070091
:1034d0002500370051072000810f500041003200c5
:1034e00081072000810f500050003200310720007a
:1034f000810f5000afff3a0000c8b300804f560064
:1035000084003a009e8890008100e800118f9800a6
:1035100019007800808ce90070b997008001eb00f9
:103520008d0037008c80fb0009017800a008200086
:103530000e004000a41507000000e00075003200f6
:103540001e8890008000e800118f9800904178005c
:10355000a20820000e014100010820008e804000da
:103560000a007800dbfe07000004440008844500e0
:10357000888f550088003400b0042000d0148900e2
:103580008085eb000b0078004f06be004f05be00a3
:103590004f04be000080fa00000006008c80fb0093
:1035a0008901780012002000a00820000e004000d1
:1035b000931407000000e000560032001e889000bf
:1035c0000000e800108f9800a20820000e014100c2
:1035d000010820008e8040000a007800d2fc07001d
:1035e000e1ff37008c80fb00890178000001eb00cf
:1035f000a00820000e004000811407000000e00039
:10360000440032009e8890008100e800118f9800ed
:10361000a20820000e014100010820008e80400019
:103620000a0078007cfd0700cfff37008c80fb008c
:10363000890178000001eb00a00820000e00400086
:103640006f1407000000e000320032001e88900076
:103650008000e800118f980090417800a2082000b7
:103660000e014100010820008e8040000a00780011
:1036700094fd0700bcff3700890178000001eb00d2
:10368000010f2000a00820000e0040005c1407007d
:103690000000e0001f0032001e8890000000e800db
:1036a000108f98005e809000ee8090007e819000e8
:1036b0008e899000e00f5000e08f5800e00f590015
:1036c000e08f59000b003a008e8690002e86900005
:1036d000202622005ffa07000d0278008c01780096
:1036e00000017800212622000a0078003efe070033
:1036f0009dff370083c7b300d8ff3700088145001e
:103700008c80fb0089017800a00820000e0040009a
:10371000b51407009e8890008100e800118f980082
:1037200092ff370000c8b300804f5600f9ff3a00ff
:103730001e8890000000e800108f980019007800a3
:10374000808ce90060f89700204f9900130020005a
:10375000a20820000e014100010820008e804000d8
:103760000a00780003fd07007fff370000c8b300a0
:10377000804f5600e7ff3a001e8890000000e800e6
:10378000108f98000e829000ae81900012002000f1
:1037900081262200d4ff3700880578006cfe3700b0
:1037a000100078000000e0000300350045f5070038
:1037b000e10f400001003a000000eb0000000600ad
:1037c0000800fa00889fbe008a9fbe0000047800af
:1037d0008105780070089000b8109000810f5000ab
:1037e00034003100fe0044008008e8009084fb00b3
:1037f000b0022000808f5400040032000005eb006e
:10380000d0022000808f540018003a00090578008b
:10381000da82b2000af0a7000a05ea000a05e90008
:103820004f55de0078089000b8109000810f5000ce
:1038300024003100fe0044008008e8009084fb0072
:1038400000fd2f0009004000e90f5000070036007e
:103850000b00e00005003200381090000000e0008e
:10386000020032007e0044001008e90000fd2f0035
:10387000090040008005eb00e90f500015003600fc
:10388000b81090000100e000020032007e00440009
:103890001008e9006022b800060020000700280098
:1038a00084bf9f0095bf9f00a6bf9f00b7bf9f002a
:1038b00036003700080078007d0b07008004780090
:1038c000cbff370008007800790b070080047800f0
:1038d000dbff3700ea58b900890440000bfd2f00d8
:1038e0008985450078089000b8109000810f50003d
:1038f0002e003100fe0044008008e8009084fb00a8
:1039000000fd2f0009004000e90f500003003e00b9
:10391000b0cc2000808f5500eeff34006158b90014
:103920006109b90080bf9f0091bf9f00a2bf9f00a7
:10393000b3bf9f00b815900000fd2f0009004000a4
:10394000e90f50003f003600b81290000500e0007b
:1039500058003a000a00e0000c0032000fb897004f
:103960009fb897002fb99700bfb99700600010006b
:10397000e080180060011900e081190080bf9f00fd
:1039800091bf9f00a2bf9f00b3bf9f000fb89700d9
:103990009fb897002fb99700bfb997004f05be0099
:1039a0004f04be000080fa00000006000800780006
:1039b0003f0b070080047800d1ff3700a4002000ef
:1039c000050020006033b8000fb897009fb897003b
:1039d0002fb99700bfb997007e1c07004fcade00c1
:1039e0000080440081004a0002014a0083014a002d
:1039f0000203be000002be000403b1000580b10056
:103a00000680b1000780b10084bf9f0095bf9f0072
:103a1000a6bf9f00b7bf9f00780890008b0f500093
:103a200004003100fe0044008008e8009084fb00a0
:103a3000c0ff3700080078001d0b070080047800e5
:103a4000bcff37000fb897009fb897002fb99700b9
:103a5000bfb99700d47a24000400e10014ae270017
:103a60000488e10044e12a000490e100741420007d
:103a70000498e100d1ff3400b81090000903b100b0
:103a8000e98f5400b0ff3e0078089000810f50008d
:103a900004003100fe0044008008e8009084fb0030
:103aa000f5ff370008007800010b0700800478005c
:103ab000f1ff37007e0044001008e900a5ff370041
:103ac000ef1fb0006f04b000889fbe008a9fbe0049
:103ad0008c9fbe008e1f78000004780001007800e3
:103ae00082af9f00d3a79f00d49f9f000505780059
:103af0008006eb0001032000810f500071003200ae
:103b00000006eb006022b8006033b800d4af9f001d
:103b1000e5af9f00f6af9f0087b79f00e10220004e
:103b2000810f500011003a0078089000b810900002
:103b3000810f50006f003100fe0044008008e80053
:103b40001080fb006022b8006033b800d4af9f0043
:103b5000e5af9f00f6af9f0087b79f0001032000ed
:103b6000810f5000660032001c0020006033b80056
:103b7000869f9d00979f9d008003eb00c7a79f0035
:103b80006022b8006033b80094b79f00a5b79f00cb
:103b9000b6b79f00c7b79f000007eb008002eb009d
:103ba000e5a79f0002fd2f0000014100e90f510031
:103bb000e30220006a003600830f50006a003200e2
:103bc0000c00e00008003a001fb29700afb2970067
:103bd0003fb39700cfb39700d4af9f00e5af9f00ee
:103be000f6af9f0087b79f000d00e0002c04320065
:103bf000000178000250a00051062000810f510002
:103c000044043a008a00780008007800ecfe0700bf
:103c1000e00f5000e08f5800e00f59000500280029
:103c20000598e1000b003a000a00e000270432008a
:103c30006000b8006011b800381390000600e00082
:103c4000040032007e0044001008e9006000b80063
:103c50006011b8005fac9700efac97007fad9700a4
:103c60008fb597000004440081844c0002054d008c
:103c700083854d00d8af9f00e9af9f00faaf9f004a
:103c80008bb79f000f9e95009f9e9500e00f5600fa
:103c9000e08f5e005f9d97006150b9008c003a0094
:103ca00049f407006011b8003ef60700e21607006d
:103cb0000002780081037800020378008302780014
:103cc0000904370078089000b8109000810f500068
:103cd00005003100fe0044008008e8001080fb0071
:103ce0001d00200083ff370008007800700a0700dd
:103cf000fbff3700080078006d0a070091ff3700ce
:103d00005faa9700efaa97007fab97008fb3970049
:103d100061025200e0825a0060035b00e0835b00b6
:103d2000d4af9f00e5af9f00f6af9f0087b79f001d
:103d300078089000b8109000810f50000500310005
:103d4000fe0044008008e8001080fb001d002000f9
:103d500082ff370008007800550a0700fbff370094
:103d6000830f500013003a000c00e00056003a00a8
:103d70001fb29700afb297003fb39700cfb3970041
:103d8000d4af9f00e5af9f00f6af9f0087b79f00bd
:103d90001c00200078089000b8109000810f50009f
:103da00046003100fe0044008008e8001080fb005f
:103db0007cff37001fb29700afb297003fb3970068
:103dc000cfb3970061024200e0824a0060034b00db
:103dd000e0834b0094b79f00a5b79f00b6b79f0044
:103de000c7b79f00c1072000810f570001032000c3
:103df00028003c00810f5000020032009fb2970063
:103e0000c5a79f006fa397000600e0001f003200c7
:103e1000c270dd0007db2f008f83430081804300e9
:103e200011029000ea22b900110178006a11b8006d
:103e30008301420004fd2f00f5ff2f00cf84de0038
:103e40000400400085804c0002014000838148004e
:103e50004270dd000bdb2f008f85450000804500a0
:103e60000288be006fa297000402e800e4a79f004a
:103e70001d002000e90f5200c6ff3a000d07470061
:103e80008002eb00e5a79f00c2ff37006111b90077
:103e9000efff3700810f5000beff32000f909700f8
:103ea0009f9097000000a00080979f0091979f002f
:103eb000c6452000c6a79f00b6ff3700080078005f
:103ec000fb09070037ff3700e002200046ff3700fc
:103ed0001fb29700afb297003fb39700cfb39700e0
:103ee0005fac9700efac97007fad97008fb5970060
:103ef0000820e10009a8e1000ab0e1000bb8e100e8
:103f00001d003a00920020000240e100e08f5c00ba
:103f1000e00f5d00e08f5d0017003c000fa99700e7
:103f2000fe0f51000a003c000c01be000faa9700d2
:103f30000402e900030033008301d1000281d300b1
:103f4000fbff3700e00f5100e08f59000a003a00f4
:103f5000841607000205be000004be000c00be006f
:103f6000831607000203be000002be000800be0068
:103f70000a01be00240037007a16070090af9f00a8
:103f8000a1af9f00b2af9f00c3af9f0022002000ef
:103f90005fa49700110009000204d8000000ea00a5
:103fa000cf80de006109b9005faa9700efaa9700f1
:103fb0007fab97008fb397000400e1000588e10014
:103fc0000690e1000798e10011003d00200220006a
:103fd000d0148900f4ff2f00f5ff2f00f6ff2f000b
:103fe000f7fe27001fa89700afa897003fa99700ea
:103ff000cfa997008e170700f4ff2f00f5ff2f00c1
:10400000f6ff2f00f7fe27008917070028ff37006b
:104010005fa4970069f92f0009004400cf80de00fb
:104020006109b9005faa9700efaa97007fab9700dc
:104030008fb397000400e1000588e1000690e100dd
:104040000798e1000e00340020022000d0148900ff
:104050006022b80006002000070120001fa897007a
:10406000afa897003fa99700cfa997007017070046
:104070006022b8000600200007012000e2ff3700a0
:10408000efa297000500e00020003a00dfae9700a5
:10409000cfa49700e88f540060003c008d8f54003f
:1040a0005e003c00f18f56005c003c000f9a9500ca
:1040b0009f9a9500e98f560019003a000400be004f
:1040c0002b1607001faa9700afaa97003fab9700d7
:1040d000cfab9700ccff37004271dd0006db2f002d
:1040e0000f0343000201430012029000ea22b900cc
:1040f000120078006a00b800810042000089be000a
:10410000efa397008703e800e7a79f006fa497003d
:10411000e80f5400f0ff34000e07e800dbff370023
:10412000e88f560016003c000400be001016070081
:104130001faa9700afaa97003fab9700cfab97009d
:104140003b1707000205be000004be00e88616000b
:104150004268dd008d1c2200808646001d0078002c
:104160009d009000ff1507000203be000002be0084
:104170000800be000a01be007e160700ccfe370014
:1041800069805600d1ff2f008180b9000fa99700e8
:1041900002004000fe0f50000a003c000403be0075
:1041a000000478000804e900030033008703d1000d
:1041b0000683d300fbff3700e00f5300e08f5b0066
:1041c00016003a00ea8656004268dd008d1c220087
:1041d000808646001d0078009d00900084bf9f00ef
:1041e000d5b79f00df1507000205be000004be0022
:1041f0000fba9700dfb297000400be00dc1507007d
:104200001faa9700afaa97003fab9700cfab9700cc
:104210000717070053ff3700020778000e01e90077
:104220004210dd0009db2f008f8444000080440031
:104230009000900010007800e00f5000e08f5800d0
:10424000f5ff32009c002000110009008c06d80008
:10425000010678000100e0001e0032000d00e000c1
:1042600001003d0069864000e8001600c208dd003c
:10427000801c220001004000100278009002900093
:10428000d4af9f00e5af9f000adb2f000f0545006c
:104290006044b8008005eb000002eb008e0f520076
:1042a0000f003a00e00f5400e08f5c00060032007f
:1042b0004270dd0007db2f008f8343000080430046
:1042c0000888be000e07e800690616008c864600c6
:1042d0000b0678008004eb00d9af9f009d003700eb
:1042e0001a0378009a0390005fa99700efa997003e
:1042f0000600be0084bf9f00e6b79f00f7b79f008f
:10430000cbf207000001440081814c0092b79f006e
:10431000a3b79f00029dbe005fa99700efa9970079
:1043200000a02c00a1b923002f1507000004be0037
:104330005fa99700efa997006fb39700ffb39700ad
:104340000600be00b715070080c9b900888bb90008
:10435000060141000044b800890441000fba9700eb
:104360008b0f520009003a001fb39700afb39700bc
:10437000e00f5300e08f5b0004003a000400e80007
:1043800080057800fb07b200e98656000402e800c9
:10439000c2ff37005fac97007d045400d8af9f0088
:1043a0000e00e900f007b20090b79f006055b8001a
:1043b000eaa79f00fba79f009fb597004258dd002a
:1043c00001db2f008f804000008040001004780047
:1043d000900490006055b800cd55dd004349de00e3
:1043e0008b0571004d4ddd004341de000a05710073
:1043f000cd44dd000004eb006fa29700ffa2970000
:104400000804420089844a0060054d00e0854d00a3
:1044100005a02c000540e100a5b9230005c8e10076
:10442000e00f5d00e08f5d002400360004a02c004a
:10443000a5b923006033b8000800be000a01be0021
:1044400093190700e0a79f00f1a79f0004a02c008c
:10445000a5b923006033b8000800be000a01be0001
:10446000921907000004be009fb597004258dd0076
:1044700001db2f008f804000008040000888be00d4
:104480008e00e900f107b2008b8f50000f003a0058
:104490008c8f55007d003200e00f5400e08f5c00ef
:1044a00001003a000b0778009fb497000900e9006b
:1044b000f007b20090b79f00bfff37006055b8000b
:1044c000eaa79f00fba79f00e7ff37001fb49700f4
:1044d0008c0f5400f4ff3a006fa59700ffa59700da
:1044e000e00f5500e08f5d001a003200e9864600bb
:1044f0000c06e900f2072000020666008c0f570048
:104500000d003a000100e900020060004200dd00f9
:104510000bdb2f008f854500008045004209dd0040
:104520000281450012027800920290001018720079
:1045300010907200010778004260dd0005db2f005b
:104540008f824200008042006fa49700ffa4970072
:104550000888be00f18f56008eff3400f28f56009f
:1045600009003a004261dd000adb2f000f0545001b
:1045700002014500e005270091082000b20f10005d
:10458000a28f180083ff3600051c22000002eb00fa
:104590000c004200f007b200800f570011003200fb
:1045a0004200dd000bdb2f008f85450000804500b9
:1045b000100178009001900035007800b500780077
:1045c000800f5100818f590006003900800f510083
:1045d000818f590005003e000402e800e20f5200fe
:1045e000ebff3a00f28f5600560032001700200011
:1045f000fb8f560001003400970020005fac97004d
:1046000007044400d8af9f00100020000700dd0021
:104610000000e9006105b9009ab79f00abb79f00a1
:104620000aa02c00abb92300070078000000e900c5
:10463000030033008b85d1000a85d300fbff3700d0
:104640000c0378006011b8008e0f530011003a007f
:10465000e00f5100e08f5900cbff32000e00e80060
:10466000f1072000010060008c0f50002d00320087
:10467000c270dd0009db2f008f844400818044007c
:104680008288be0000077800bfff37008c007800ea
:1046900091ff37004234dd0001db2f008f804000a6
:1046a0000884400018007800980090000002be00c6
:1046b000870478008904e900030033008502d100f3
:1046c0000482d300fbff37000402410085824900c9
:1046d000048cbe009fb19700030160002fb49700c7
:1046e000088060008a80b90082dcb90008004000c0
:1046f0000a11b800830140008c0f530006003a00f5
:10470000e00f5200e08f5a0003003a000606e8006e
:10471000fc07b200e98656000603e800f607b2007f
:10472000c9ff37000e00e900010060004200dd0013
:104730000adb2f000f054500000045001000a00017
:1047400091ff37008005eb009bb79f008006eb00d0
:104750000005eb008004eb000c844400f40720000b
:10476000040464008e0f540009003a000e07e800ac
:10477000040767000e02e9004222dd0000db2f0083
:104780000f00400004024000000aeb0034127800e1
:104790006022b80056d62c00d71c24001fb097000a
:1047a0008d0078000b0178008a017800a0150700c1
:1047b0000203be000002be004244dd0001db2f0008
:1047c0008f80400008844000180078009800900016
:1047d00084bf9f00d5b79f00e6b79f00f7b79f0043
:1047e000631407000fba9700dfb297006fb397000a
:1047f000ffb397009414070090b79f0081067800dc
:1048000082057800030578008904e800e28f5400ef
:10481000d1ff3a000002be000203be001fa89700ad
:10482000afa897003fa99700cfa997008015070070
:10483000c0a79f00b1a79f00a2a79f000304780014
:10484000b09f9f00a19f9f00929f9f00839f9f000a
:10485000dfac97005903b000c99f9f005fa5970088
:104860000a855400eaa79f000fa99700820f550000
:10487000e2003d009ab79f000a00e00002003d0000
:104880008004eb0099b79f001a0020009aaf9f00a8
:10489000920620001fb597000a0151000000200079
:1048a00001f823002c1b0700e31307004fa2970019
:1048b000bfa297002fa3970088037800051907006f
:1048c000e09f9f00f19f9f0082a79f0093a79f00fa
:1048d000520320000a0151000000200001f82300cb
:1048e0001d1b0700d41307000203be000002be0018
:1048f0004fa09700bfa097002fa1970088017800d4
:10490000a01907008005780001057800820478006e
:10491000830678000002be000203be004fa097008d
:10492000bfa097002fa197008801780040140700ce
:104930000203be000002be006f989700ff98970028
:104940000fa197009fa197003f140700b09f9f0001
:10495000a19f9f00929f9f00839f9f000c80e80073
:10496000f8072000080060008e0f5000420032005f
:104970004200dd0001db2f008f80400000804000fe
:104980009000900010007800f24f2600d3dc210048
:10499000820f5000838f5800ae003e00e00f5000a1
:1049a000e08f580004003a006306460008066600df
:1049b0008e0f5600120032005f9c97006140b900d4
:1049c00001f107000200200003e82300f5f20700d0
:1049d000991307000203be000002be000b0078001e
:1049e0008a007800090178008d017800161407000c
:1049f000800578000105780082047800830678003d
:104a0000500320001fb4970008005000e10f500031
:104a1000190034006022b8000600200007ff2300c0
:104a20000b0078008a007800090178008d01780079
:104a3000541907006022b8006033b8006013070003
:104a40000000e0000c003a006022b80006002000e0
:104a500007ff23000b0078008a0078000901780026
:104a60008d017800f81307008005780001057800b3
:104a700082047800830678005fa497000800ea00ab
:104a80000fa9970002005000d0a79f000b027800ea
:104a90008a027800090378008d0378003f98970018
:104aa000af9897001f9997008f999700e61307001a
:104ab0006f9a9700ff9a97000fa397009fa3970004
:104ac000db13070080af9f00010778000206780023
:104ad00003047800c0a79f00b1a79f00a2a79f0072
:104ae000e39f9f00dfa197008300e9004f989700a4
:104af00000f0a100808f500039003c000fa8970003
:104b00008e0078000c017800880178008918070071
:104b10006022b80006002000073424002d1307008f
:104b20000000e0001a0035001faa97000400e00012
:104b300008003200efa297001fb3970006806a00ba
:104b400000f0a7000000ea000000ea004f00de00cd
:104b500090af9f006022b8000600200007fe2300ef
:104b60000fa897008e0078000c017800880178006b
:104b7000af140700c0a79f00b1a79f00a2a79f0086
:104b8000e39f9f005fac97000804e800d8af9f0048
:104b9000dfa897004103b0005fa4970063004400c2
:104ba000808f50000c003d001fac97000800e00013
:104bb0000b0032006022b8006033b8000b007800b0
:104bc0008a007800090178008d017800151307002c
:104bd0000000e0000200320020022000d014890012
:104be0005faa97004fa09700bfa097002fa1970042
:104bf000ef9997008b1a07002dfc37004003200027
:104c00000fa99700800f510004003c0092b79f004d
:104c10008004eb0099af9f001dff37008005eb007b
:104c20009baf9f005803200098b79f006044b800d6
:104c30006055b800e89f9f00f99f9f008aa79f00da
:104c40009ba79f006055b8008004eb008006eb0036
:104c500042ff370002502600d3dc2100820f5000b3
:104c6000838f58005f9997006110b90004003600e7
:104c700055f007000200200003f4230053ff370023
:104c800051f0070063064600080666008e0f5600c6
:104c9000f8ff3a000200200003f023004bff37002a
:104ca0000000e00007003500b81490000900e000a3
:104cb000020032007e0044001008e9000d00e00010
:104cc000f0fb3a0060012000d01489006022b80097
:104cd0006033b80008007800530607000002eb00bc
:104ce0006033b8008002eb00040078008700780091
:104cf00006017800850178004f0778004f06be0056
:104d00004f05be004f04be00ef1fb1006f04b1009d
:104d1000000006000000e000e3ff3d00d9fb370083
:104d20002f04b000889fbe008a9fbe008c9fbe00eb
:104d30008e1f780080047800020478000002eb00e7
:104d40006033b8008002eb000100e000670035002e
:104d5000e18f500044003400e28f500063003a00bd
:104d6000eabc2f009aa79f005203200082a79f0051
:104d700079089000b9109000810f50003e0031007a
:104d8000fe8044008008e8009085fb0000022000bf
:104d9000808f5500f6ff320069805500e40f500007
:104da000f3ff3600b0022000808f5500360032003d
:104db0001a002000fa9f9f00d0022000808f55002b
:104dc0000a003a002000200061001000f09f9f00c0
:104dd00079089000b9109000810f50002c0031002c
:104de000fe8044008008e8009085fb000005eb0091
:104df000201b2200000045009000fb000b00780003
:104e00000050a000810f500025003200e30f550034
:104e100006003200e80f55002d003200e30f550068
:104e2000400036000800e0003e003200b91090005b
:104e30000100e000020032007e8044001008e9001a
:104e40000800e00022003200e30f55002000360089
:104e50000100e000020032007e8044001008e900fa
:104e60000a05e900f8ff3700baf62f009aa79f005d
:104e700082012000bdff3700090078000c06070002
:104e800080057800c1ff37000000eb00ceff37003f
:104e9000090078000606070080057800d3ff370078
:104ea000e60f550007003e0079089000b910900009
:104eb000810f500017003100fe8044008008e80098
:104ec0009085fb000a05e800e80f5500c8ff3a008e
:104ed000ff9d97000002eb006033b80005ff2f0034
:104ee0000b00e0000100350005ff270004007800fa
:104ef0008700780006017800850178004f07780068
:104f00004f06be004f05be004f04be002f04b10087
:104f10000000060009007800e5050700800578001c
:104f2000e8ff37000a00e000190032003910900055
:104f30000000e000cb003a0060012000d01489009e
:104f40006022b8006033b80009007800b605070099
:104f50000002eb006033b8008002eb00e3ff370093
:104f6000e10f550007003e0079089000b91090004d
:104f7000810f500026003100fe8044008008e800c8
:104f80009085fb000a05e800e30f55000900320098
:104f9000b01b2200000045009000fb000b007800d1
:104fa0000050a000810f5000edff3200e30f5500cc
:104fb00050003a00f908900039109000808f50009e
:104fc000170031007e8044000108e80080c2b30071
:104fd000114068000070a7000040ea000040ea00ad
:104fe0004700de00610060001a0020000004e000bd
:104ff00016003200b91090000100e00010003a00e5
:105000000002eb006033b80085ff2700b7ff3700d0
:1050100009007800a605070080057800d9ff370051
:1050200009007800a20507008082b20000f0a70006
:105030000000ea000000ea004f00de00eaff37004f
:105040007e8044001008e900edff370079089000e9
:10505000b9109000810f500011003100fe80440013
:105060008008e8001080fb0001fd2f0080804000d8
:10507000e98f500008003600800078000150a10040
:105080001104b100f98f500003003600f105200033
:10509000810f500005003a000a05e800ebff3700d9
:1050a0000900780082050700efff37009102200019
:1050b000810f5000d2ff3200b91090000100e000d3
:1050c000020032007e8044001008e9000800e00081
:1050d00099ff32000a05e900e10f4500c8ff3200e0
:1050e0000100e000fbff32007e8044001008e90070
:1050f000f8ff37000a00e0008cff3a0000032000b0
:10510000808f5500c4023a0079089000b9109000d1
:10511000810f500056003100fe8044008008e800f6
:105120001080fb00b91090000050a0008207200002
:10513000820f5000b4023a0079089000808f50002e
:105140004e003600fe8044008008e8001080fb001e
:105150008000eb0002032000820f50004a00320062
:10516000e2022000820f5000530032006022b8009b
:105170006033b800d4a79f00e5a79f00f6a79f0063
:1051800087af9f008005eb006022b8006033b80055
:10519000b4af9f00c5af9f00d6af9f00e7af9f00a1
:1051a0000005eb009a9f9f00da9f9f00ca9f9f0017
:1051b000ba9f9f000aff2300aa9f9f000005eb00f3
:1051c0008abf9f000007eb006066b8006011b8005e
:1051d00092af9f00a3af9f000afd2f00000545007e
:1051e000e90f550063003600000178000250a0006e
:1051f0001206b100e50f51005e003600e202200009
:10520000820f50005e0032000100e00001013a0010
:10521000b91290000500e000870232007908900082
:10522000fe8044000800e000f40032000b00e000c3
:10523000f0003a008088e9007f9c97006140b90047
:10524000e1ee07006011b800d6f007007a11070000
:10525000000278008103780002037800830278005e
:1052600022ff37007e8044001008e90032ff37003b
:10527000090078000e050700aaff37000900780032
:105280000b050700b2ff370079089000b9109000b5
:10529000810f500005003100fe8044008008e800c6
:1052a0001080fb0011002000aaff370009007800e1
:1052b000ff040700fbff37007908900039119000c8
:1052c000820f50000e0031007e8144000009e8008a
:1052d0001080fb006022b8006033b800d4a79f00a4
:1052e000e5a79f00f6a79f0087af9f00020320005d
:1052f000820f5000070032001b002000a2ff370081
:1053000009007800f1af9f00e9040700ffa89700ab
:10531000f0ff370079089000b9109000810f50001d
:1053200011003100fe8044008008e8001080fb007e
:105330005fa29700efa297007fa397008fab970023
:1053400061025200e0825a0060035b00e0835b0070
:10535000d4a79f00e5a79f00f6a79f0087af9f00f7
:1053600011002000e1ff370009007800d004070099
:10537000efff3700e2022000820f500023003a00c6
:105380000b00e0002f023a003faa9700cfaa970037
:105390005fab9700efab9700c4b79f00d5b79f00f6
:1053a000e6b79f00f7b79f001b0020007908900028
:1053b00039119000820f5000890031007e81440035
:1053c0000009e8001080fb003faa9700cfaa9700d1
:1053d0005fab9700efab9700d4a79f00e5a79f00b6
:1053e000f6a79f0087af9f004fb29700dfb29700ec
:1053f0006fb39700ffb39700b4af9f00c5af9f0096
:10540000d6af9f00e7af9f0073ff370091032000e6
:10541000810f5000030034000050a0009afa2f00c2
:10542000000545003fa89700cfa897005fa9970007
:10543000efa99700740020000400e100e08f5800fd
:10544000e00f5900e08f590021003c001fab97008e
:10545000afab97004438dd00cc30de008100700037
:105460004430dd004fd2de000001450081014a00da
:1054700092af9f00a3af9f003faa9700cfaa9700cb
:105480005fab9700efab970061024200e0824a00f9
:1054900060034b00e0834b00c4b79f00d5b79f006b
:1054a000e6b79f00f7b79f005fa09700efa09700b7
:1054b0007fa197008fa99700b0af9f00c1af9f0059
:1054c000d2af9f00e3af9f0011002000b7ff37006d
:1054d0003fa89700cfa897005fa99700efa9970072
:1054e000d40020000400e100e08f5800e00f5900d4
:1054f000e08f59001f003c006022b8000600200029
:1055000007fb23005f989700cf9897003f9997007b
:10551000af99970046120700d09f9f00c19f9f0040
:10552000b29f9f00a39f9f006150b9000d1107001b
:105530005f9a9700cf9a97003f9b9700af9b970089
:105540003b1207000203be000002be000fb8970026
:105550008e0078000d0178008c0178003a11070068
:1055600080bf9f000107780082067800030678005c
:10557000c1ff37000a00e000bfff32001f9d970007
:105580000a00e000bcff3a006022b80006002000dc
:1055900007fe23005f989700cf9897003f999700e8
:1055a000af999700221207000203be000002be005e
:1055b0000fb897008e0078000d0178008c017800fc
:1055c0002111070080bf9f00010778008206780044
:1055d000030678001a0020009a9f9f00a6ff37005c
:1055e00009007800f1af9f0031040700ffa8970081
:1055f00075ff3700e30850000fff37008008e9000f
:105600006022b8006033b800090078000604070083
:1056100009ff37000b00e00008003a003faa97009e
:10562000cfaa97005fab9700efab9700d4a79f007e
:10563000e5a79f00f6a79f0087af9f003faa9700ae
:10564000cfaa97005fab9700efab97007a002000de
:105650000a20e100e08f5a00e00f5b00e08f5b0062
:10566000630034000050a00001072000810f5000ab
:105670007d003a00880078000900780050f80700a3
:10568000b0af9f00c1af9f00d2af9f00e3af9f00bc
:10569000e00f5000e08f5800e00f59000b00280089
:1056a0000b98e1000b003a000800e00024fe3200f5
